:10A0000000580020C5A4000021A5000021A50000E3
:10A010000000000000000000000000000000000040
:10A0200000000000000000000000000021A500006A
:10A03000000000000000000021A5000081A8000031
:10A04000A9C60000B3C60000BDC60000C7C6000018
:10A05000D1C6000021A5000021A5000021A5000017
:10A0600021A5000021A5000059B2000063B2000044
:10A0700021A5000021A5000021A5000021A50000C8
:10A0800021A5000021A5000021A5000055A6000083
:10A0900021A5000021A5000021A5000021A50000A8
:10A0A00021A5000021A5000021A5000021A5000098
:10A0B00021A5000021A5000021A5000021A5000088
:10A40000FFFFFFFFFFFFFFFFFFFFFFFFFE7FFFFFDD
:10A41000054B0648033310B51B1A062B03D9044B12
:10A42000002B00D0984710BD580700205807002087
:10A43000000000000648074910B5091A8910CB0F23
:10A440005918491003D0044B002B00D0984710BD79
:10A4500058070020580700200000000010B5074CE6
:10A460002378002B09D1FFF7D3FF054B002B02D037
:10A47000044800E000BF0123237010BDC03000205D
:10A4800000000000B0E00000094B10B5002B03D025
:10A490000849094800E000BF08480368002B02D1C2
:10A4A000FFF7C8FF10BD064B002BF9D09847F7E720
:10A4B00000000000C4300020B0E000005007002081
:10A4C0000000000072B610490F4A0F4B0E4C0E4DA3
:10A4D0000D4E0D4FB846B946BA46BB46BC460B4971
:10A4E0000B4A521A013A05DD002004230860194482
:10A4F000043AFBDA07488546074880470748804703
:10A5000062B600F0ABF8FEE700000000000000209B
:10A510000058002000580020C1DD00000DDD0000C3
:10A52000FEE7C046002243088B4274D303098B42E6
:10A530005FD3030A8B4244D3030B8B4228D3030C13
:10A540008B420DD3FF22090212BA030C8B4202D3B5
:10A550001212090265D0030B8B4219D300E0090ADD
:10A56000C30B8B4201D3CB03C01A5241830B8B42E6
:10A5700001D38B03C01A5241430B8B4201D34B03CF
:10A58000C01A5241030B8B4201D30B03C01A524134
:10A59000C30A8B4201D3CB02C01A5241830A8B42B9
:10A5A00001D38B02C01A5241430A8B4201D34B02A2
:10A5B000C01A5241030A8B4201D30B02C01A524106
:10A5C000CDD2C3098B4201D3CB01C01A52418309BA
:10A5D0008B4201D38B01C01A524143098B4201D3F4
:10A5E0004B01C01A524103098B4201D30B01C01A1F
:10A5F0005241C3088B4201D3CB00C01A5241830899
:10A600008B4201D38B00C01A524143088B4201D3C5
:10A610004B00C01A5241411A00D201465241104625
:10A620007047FFE701B5002000F006F802BDC04604
:10A630000029F7D076E770477047C04610B5002074
:10A6400000F086FD80210902014800F09FFC10BD4A
:10A65000C0F00F4010B5FFF7F1FF10BD30B583B06B
:10A6600000233C4A01213C4802F0C4FA00210020AA
:10A6700002F0D4FA39493A2000F068FC00F0CEF834
:10A680006B469A1D3649374800F07EF8002800D105
:10A69000FEE73449002000F017FD334C01220F2162
:10A6A000200000F068FC80210902200000F06CFC12
:10A6B0006B469C1DD988002000F068FD2188002091
:10A6C00000F072FD002000F029FD002000F052FD96
:10A6D000002000F02FFD254D4C220021280003F022
:10A6E00091FB0022224B1A70224B1C682A00210089
:10A6F000214800F0EDFA1E4D05E080235B001B4A67
:10A7000052689A420BD02B78002BF6D00023184ABF
:10A710001370164A2100184800F0DAFAEDE700231A
:10A72000134A1370154A0221FF3151600120B939D3
:10A730005054137212490B70124B19680E4800F0F6
:10A740006BFA0F4C00E0C0462378002BFBD003F0DF
:10A7500049FBF8E7A03200201C070020340100204C
:10A7600040420F006CE00000C0F00F40A432002017
:10A770003E33002014DE0000A8E00000F03200208C
:10A780003F3300201CDE0000F0B583B00C00170042
:10A79000837801269E40C378022B06D0032B1BD062
:10A7A0000A25012B02D0012500E0142501A9002073
:10A7B00003F020F90B490198FFF7B4FE6043FF2135
:10A7C00031406943FFF7AEFE421E074B9A4205D85F
:10A7D0003880012003B0F0BD2825E7E700233B8047
:10A7E0000020F7E740420F00FEFF0000002905D0DF
:10A7F000012902D10122054B1A7070470122044B36
:10A800001A70044B5A68044B1A80F6E73F33002055
:10A810003E330020A43200203C330020F8B5144E13
:10A820001449300000F0A0F8134C002525700127D2
:10A830006770A570E77025710023220001213000A8
:10A8400000F08CF9002301220121300000F07CFA95
:10A8500025706770A570E770257122000021300017
:10A8600000F020F900220549300000F0ABFAF8BDF5
:10A87000A8E0000074E0000040330020EDA70000D5
:10A88000024A1368013313607047C046DC30002071
:10A8900010B5041E01D100BEFEE700F0D5FC237800
:10A8A000DBB2FF2B08D023780133DBB22370002406
:10A8B00000F0BCFC200010BD0124F9E770B50400D5
:10A8C0000D00002801D100BEFEE700F0BDFC2570A0
:10A8D00000F0ACFC002070BD002801D100BEFEE7F6
:10A8E00000207047034B1B68181A431E9841C0B2E2
:10A8F0007047C046F8310020F0B583B004000E0068
:10A9000017000193FFF7EEFF8200154BD558420068
:10A91000144BD35C002B07D0002F05D0114B981897
:10A9200042785200BF1A073F012E12D0002E09D0E4
:10A93000042E05D1FF223A40019B01212000A847A7
:10A9400003B0F0BDFF223A40019B00212000A84740
:10A95000F6E7FF223A40019B00212000A847EFE7DD
:10A9600080320020E0300020F0B5D6464F46464603
:10A97000C0B58EB005000C00002801D100BEFEE776
:10A98000002901D100BEFEE70378002B00D07EE055
:10A990004268002A00D06FE03E4B1978012300295D
:10A9A00005D13D4B1A6001223A4B1A70002399469B
:10A9B0005A00002039495054226800922179684693
:10A9C0008171A1790172E179C171E1680491216914
:10A9D000059161690691A1680391A1690791216AB6
:10A9E0000991616A0A91A16A0B91E1690891E16A92
:10A9F0000C9161794172216B00293FD00120824680
:10AA00006846564646710978017100208046353007
:10AA100084466846664647468755342084466846DD
:10AA20006646875548001218073200921B4A5800A4
:10AA300056468654121851701901C9188900C91850
:10AA40008900174BC91828796A4601F02DFB071EAB
:10AA50000BD14B465E00114BF35C002B05D0236BF2
:10AA60005A685978287901F099FC38000EB01CBC5E
:10AA700090469946A246F0BD00BEFEE70022427114
:10AA8000027135216846425401394254D4E7012706
:10AA9000EBE7C046FC310020F8310020E030002018
:10AAA000E4300020F0B585B00C001500002801D17D
:10AAB00000BEFEE7002A01D100BEFEE70378002BAE
:10AAC00046D1466877427741002F01D100BEFEE7AC
:10AAD0003000FFF707FF42001E4BD25C002A03D074
:10AAE00027007B1E9F41FFB2002F01D100BEFEE771
:10AAF00000231F21A1425B41DBB2002B01D100BE2C
:10AB0000FEE7E97801AB197029784027002900D1C8
:10AB1000383F01AB02971972A97859726978997216
:10AB20000021D97243011B199B000B495D50002A7B
:10AB300006D04000074B181843785B00E418073430
:10AB4000E1B2F0B2002301AA01F0B4FB05B0F0BD00
:10AB50000120FBE7E030002000320020F0B587B094
:10AB60000C0015000193002801D100BEFEE7002A69
:10AB700001D100BEFEE70378002B46D147687E4234
:10AB80007E41002E01D100BEFEE73800FFF7AAFE8D
:10AB900042001F4BD25C002A03D02600711E8E415A
:10ABA000F6B2002E01D100BEFEE700231F21A14214
:10ABB0005B41DBB2002B01D100BEFEE7E97803ABBD
:10ABC000197029784026002900D1383E03AB04963D
:10ABD0001972A9785972697899722979D9724301E1
:10ABE0001B199B000B495D50002A06D04000084B02
:10ABF000181843785B00E4180734E1B2F8B2019BFF
:10AC000003AA01F097FB07B0F0BD0120FBE7C046A7
:10AC1000E030002000320020F0B587B00C001500B5
:10AC2000002801D100BEFEE7002A01D100BEFEE7E8
:10AC30000378002B45D1466877427741002F01D138
:10AC400000BEFEE73000FFF74DFE42001E4BD15C18
:10AC5000002903D027007B1E9F41FFB2002F01D1A6
:10AC600000BEFEE700231F22A2425B41DBB2002BA5
:10AC700001D100BEFEE743011B199B00134A9A58FD
:10AC800003ABD7781F704827EF5D049717781F72C2
:10AC900097785F7257789F721279DA72002906D01E
:10ACA0004000094B181843785B00E41807346B68C0
:10ACB000E1B2F0B20835009503AA01F01DFB07B020
:10ACC000F0BD0120FBE7C046E0300020003200204C
:10ACD00070B50D001600002801D100BEFEE7002A65
:10ACE00001D100BEFEE70378002B28D11F228A4243
:10ACF0005B41DBB2002B01D100BEFEE74468002CB3
:10AD000001D000BEFEE72000FFF7ECFD42000D4B36
:10AD1000D35C002B0DD0002D04D1E0B2310001F046
:10AD20005CFB70BD4000074B181843785B00ED18C2
:10AD30000735E9B2E0B2320001F046FBF1E701204D
:10AD4000EFE7C046E0300020F0B583B00700009187
:10AD500016000193002801D100BEFEE70378002B06
:10AD60002BD1446865426541002D01D100BEFEE74C
:10AD70002000FFF7B7FD4000114BC35C002B03D050
:10AD800035006A1E9541EDB2002D01D100BEFEE7EF
:10AD900000231F22B2425B41DBB2002B01D100BE77
:10ADA000FEE7E0B2012101F027F9F2B23879019B08
:10ADB000009901F041F903B0F0BD0120FBE7C04666
:10ADC000E030002070B50E001500002801D100BE53
:10ADD000FEE70378002B19D1002911D04468002C1C
:10ADE00001D000BEFEE72000FFF77CFD8000084B8D
:10ADF000C650E0B22A00074901F046FC002070BDB1
:10AE00000079002101F040FC0020F8E70120F6E77E
:10AE100080320020F9A8000030B501680B005A1EEE
:10AE20009341002B01D100BEFEE7C27A012A03D074
:10AE3000002B06D100BEFEE703695C1EA341DBB216
:10AE4000F6E7446800231F25A5425B41DBB2002BD7
:10AE500001D100BEFEE7A40009190B68047A012C99
:10AE600049D0002C03D0022C4AD000BEFEE70224B9
:10AE7000A3431024A343457A2D012C4023434024AF
:10AE8000A343857AAD012C4023432C4C1C40130274
:10AE9000E022D20013402343294A1340027BD20709
:10AEA000120C1343274A1A40437B1B04F02424034B
:10AEB00023401343827B002A04D0234A134080227C
:10AEC000520413430B600168C0254B5944680122AA
:10AED000A24093431A00C37BA34013434B51C37A50
:10AEE000012B23D101694B69027D002A0BD0012A75
:10AEF0001ED000BEFEE70124A34301342343B8E77C
:10AF000003242343B5E701224468A24093434B61E5
:10AF1000037D012B0AD1016944680B680122A2401C
:10AF200093431A00437DA34013430B60002030BDC0
:10AF300001224468A2401343E9E7C046FFF8FFFF3F
:10AF4000FF7FFFFFFFFFF0FFFFFFFFFEF8B5071ECB
:10AF50000ED00C000026002503E001351834AF4266
:10AF600007D02000FFF758FF0028F6D00600F4E7CE
:10AF700000263000F8BD10B5436901248C40A3437E
:10AF80008A401A43426110BD81607047C1607047BA
:10AF9000F0B50200531E9A41D2B2002A01D100BE80
:10AFA000FEE700230360002A01D100BEFEE703682C
:10AFB00080210B430360244B4360C36000230024C3
:10AFC0007F398C460DE0002E01D100BEFEE74F19FF
:10AFD0000637BF003C500135082D1AD10133022B32
:10AFE0001BD09900C918C90041180C614C61002A96
:10AFF00011D02600614699426641F6B2002EE4D097
:10B000009900C918C90041188C6101259900C91817
:10B010004900002AD7D100BEFEE70023C82149001D
:10B02000435004314350002A01D100BEFEE70368BB
:10B0300001210B430360002A01D100BEFEE7036833
:10B04000802293430360F0BDFFFF000030B500286D
:10B0500001D100BEFEE7002901D100BEFEE7026873
:10B06000184B1A400B789B04C024240323401A4336
:10B070004B78002B02D080239B021A438B781B0352
:10B08000E024E40123400C792402F0252D012C401A
:10B090002343CD78AD000C242C40234313434A793D
:10B0A000002A01D0022213438A79002A02D080228A
:10B0B00012021343CA79002A01D0202213430360ED
:10B0C00030BDC046D100F1FF70B50C00002801D0A2
:10B0D00000BEFEE7002901D100BEFEE700213420BA
:10B0E00002F088FC002801D000BEFEE70A4D2800CF
:10B0F000FFF74EFF21002800FFF7A8FFE379002BA0
:10B1000002D16378002B03D0132000F05BF870BDF0
:10B11000132000F071F8FAE700600340002801D026
:10B1200000BEFEE7024A136880210B43136070479C
:10B1300000600340002801D000BEFEE7034A11680A
:10B1400080235B020B4313607047C04600600340DE
:10B1500082B0002801D000BEFEE7054B1A684021EE
:10B160008A431A601B680193019B02B07047C04676
:10B1700000600340002801D000BEFEE7024A1368C9
:10B1800001210B431360704700600340002801D089
:10B1900000BEFEE7034A53681B0C1B0419435160B1
:10B1A0007047C04600600340002801D000BEFEE7A3
:10B1B000034AD3681B0C1B041943D1607047C04677
:10B1C00000600340002801DA00BEFEE7C1B20023A0
:10B1D0001F228A425B41DBB2002B01D100BEFEE799
:10B1E00040091F220A40012393408000014A8350F6
:10B1F0007047C04600E100E0002801DA00BEFEE72B
:10B20000C2B200231F2191425B41DBB2002B01D16E
:10B2100000BEFEE743091F21114001228A4020336E
:10B220009B0001495A50704700E100E0054B1B6844
:10B23000002B04DD013B034A1360002B00DD704747
:10B2400062B6FCE78432002072B6024A136801330A
:10B25000136070478432002010B5002001F020F9FF
:10B2600010BD10B5002001F01BF910BD08280BD946
:10B270000300093BDAB2FF20062A05D8DBB29B00A7
:10B28000084AD3589F46102070471420FCE7182026
:10B29000FAE72020F8E73020F6E74020F4E70C201A
:10B2A000F2E7C04624DE00000368DB0210D5036825
:10B2B0005B005B0803600368064A13400360036891
:10B2C000054A134003608022520303681342FCD1F5
:10B2D0007047C046FFFFFFBFFFFFFFEF0368002B73
:10B2E00009DB026880231B0613430360802252039C
:10B2F00003681342FCD07047026880239B04134309
:10B3000003608022920403681342FCD10268802308
:10B310005B0113430360134B984202D000230021CA
:10B320000AE003008033A02292008118002204C3A7
:10B330009942FCD120238021882212018218002BFF
:10B3400005D013005218002102C39342FCD1064BD2
:10B3500003614361836100238362013B0363034B09
:10B360000362704700400240FFFFFF1F06003B00E2
:10B3700030B50500154BC3185C425C41640102689E
:10B3800080231B011A401000431E984180B2002AFE
:10B390001BD12A6880239B0513432B606A6B0B0625
:10B3A000F02109050B400A4911400B436B63094B1F
:10B3B000AB64211E09D00023064C882292009A1803
:10B3C0009200545101338B42F7D130BD00C0FDBF14
:10B3D000FFFFFFF0FFFFFF1FF0B5DE4657464E466A
:10B3E0004546E0B5002A01D100BEFEE70400E03486
:10B3F000436B1B011B0F012936D000290BD00229FA
:10B4000000D182E0032900D1E6E03CBC9046994699
:10B41000A246AB46F0BD0168724D29400160013380
:10B42000DB00F2D017002100D80010186E4D8024E8
:10B43000E40508E05B68DB042B409B180B600837D1
:10B440000431B842E1D03B003E780022002E01D00A
:10B45000802212065E78002EECD05B68DB009B0831
:10B4600022439B180B60EAE701685E4D0D40802186
:10B470004900294301600133DB00C6D016002100DA
:10B480001B01D018584B9B46584B9A468023DB052E
:10B490009946574B984608339C4612E05A68D204A6
:10B4A0005F463A4052190A6021E00A68DB68DB0017
:10B4B00045462B401B1913430B601036043186425E
:10B4C000A3D0330032780025002A01D080252D0634
:10B4D0001C7A621E9441E4035A78002ADED05A682E
:10B4E000520057463A404F463D4352190A605A7A35
:10B4F000002ADAD00D68DB68DB009A0C2300644672
:10B500002343D3182B430B60D7E70168354D0D401B
:10B5100080218900294301600133DB0000D174E7F9
:10B52000501C22009B00E118FF273F04FF2626E065
:10B530001568C41C2468E40824062C43146029E020
:10B5400015681C000B34246864033C402C431460D1
:10B550002BE015681C0013342468E4082406240C2E
:10B560002C4314602DE014681B331B68DB08334048
:10B5700023431360203004328A4200D145E70300A0
:10B580000478002CD4D01568C41C2468640D2406EB
:10B590002C4314601C7A002CD2D015681C000B348C
:10B5A000246864093C402C4314601C7C002CD0D0DF
:10B5B00015681C0013342468640D2406240C2C43E5
:10B5C00014601C7E002CCED014681B331B685B0DEE
:10B5D000334023431360CDE70268C0239B0013432D
:10B5E000036012E7FFFCFFFF0000F83F0000FF3F91
:10B5F000F83F000010B504687F2323408B4207D238
:10B60000C020800010BD826A134383620020F9E7E6
:10B610001F290AD81F2319401E3B8B40002AF2D154
:10B62000826A9A4382620020ECE70020EAE7000089
:10B630000368064A134003600368054A1340036029
:10B640008022520403681342FCD17047FFFFFFEFD2
:10B65000FFFFFFBF02688023DB051343036002681E
:10B6600080235B051343036003680121002B11DB7A
:10B670008022520403681342FCD0002909D10268D9
:10B6800080231B0613430360802252030368134286
:10B69000FCD0704703685B005B0803600021E7E7AC
:10B6A000026A024B1A4200D00362704706003B0058
:10B6B00070B504000D1E01D100BEFEE78026805942
:10B6C0000003000FFFF7D2FD4823E854A3592B6075
:10B6D0009B0211D58423E3586B6000228834002834
:10B6E00009D093089B00E118096809BAEB18996022
:10B6F00004328242F5D370BD8423E3589B0C6B6007
:10B70000EBE7000010B5032911D0042912D000295D
:10B7100016D0012921D002291ED1426880235B0165
:10B7200013434360436808229343436014E0FFF7E8
:10B7300091FF11E0026880231B06134303600BE0B6
:10B740000368084A13400360436808229343436038
:10B750004368054A1340436010BD43680822134301
:10B760004360F9E7FFFF7FFFFFEFFFFF10B50268BF
:10B770000123120502D44B424B41DBB2002B01D115
:10B7800000BEFEE703681B0507D5C02212018358DF
:10B79000024C234009041943815010BDFFFFFCFFF8
:10B7A00002680823120507D5C0231B01C258920363
:10B7B000920F033201239340D8B27047F8B50500C9
:10B7C0000F00FFF7EDFF0830C4B221008020800099
:10B7D000FEF7A8FEFF26064031003800FEF728FFDE
:10B7E000A4084C4331003800FEF79CFEC00120182D
:10B7F000203080002818F8BDF0B5DE4657464E468A
:10B800004546E0B583B004008846160099460C9F73
:10B81000531E9A419346002A01D100BEFEE7FFF76E
:10B82000CDFF050008239A468244BB0706D00023BB
:10B830000322B1688A425B41DBB29B465B46002B28
:10B8400001D100BEFEE722687F231340984500D94E
:10B85000D0E023689B0000D5D2E023681B0509D502
:10B86000B37B002B06D0C0221201A15880231B06F7
:10B870000B43A350B36898466A46D371D479082C19
:10B880001ED92300093B032B00D89FE0043B032B68
:10B8900000D89DE0043B032B00D89BE0043B032B26
:10B8A00000D899E0043B072B00D897E0083B0F2B0A
:10B8B00000D895E0313CE3B20F240F2B00D9F034CF
:10B8C000002F32D02000FFF7D1FC032342469A43D9
:10B8D000131E10D00023032294469A0892001100F0
:10B8E00008316918BA5812BA0A600433B26861465E
:10B8F0008A439A42F1D8B26893420BD2032290460F
:10B900001A0041464A405244F95C11700133B26852
:10B910009A42F5D8824208D2032113004B40534487
:10B92000777B1F7001328242F7D300232B606B605C
:10B9300033790022012B0BD16B685B0F5B076B60C7
:10B940006A684B46DB00DB0813436B60802292037E
:10B950003379002B0BD16B682F4A13406B606A68F8
:10B960004B469B042D490B4013436B60002223047C
:10B97000F02424032340134332680F2A38D01C2AB2
:10B9800002D1802149030B4325490B40317B00291B
:10B9900028D01206F02109050A40802109060A4331
:10B9A0001343B27B002A02D08022D20513432A68B7
:10B9B00013432B60002002E0636BC020800003B0C3
:10B9C0003CBC90469946A246AB46F0BD092477E7B9
:10B9D0000A2475E70B2473E70C2471E70D246FE745
:10B9E0000E246DE71206F02109050A401343D8E73B
:10B9F0000020E4E723689B00DED4C0208000DEE75F
:10BA0000636B1B011B0F5B000733984500D924E7CC
:10BA1000C0208000D3E7C046FFFF03E00000FC1F0A
:10BA2000FFFFFFF0F8B507000E0015001C00002A0C
:10BA300001D100BEFEE7FFF7C1FE3A687F23134045
:10BA40009E424CD83B689B0006D57B6B1B011B0FAD
:10BA50005B0007339E423FD90023036043602B798C
:10BA6000012B11D1026880239B03134303600368F9
:10BA70001E4A1340036043685B0F5B0743604268E4
:10BA8000E300DB08134343602B79002B0DD10368DF
:10BA9000174A134003604368164A134043604268E4
:10BAA000A304154C2340134343602B680F2B11D084
:10BAB0000368124A1340036002682B681B06F021DA
:10BAC00009050B4013430360002002E07B6BC0209C
:10BAD0008000F8BD0020FCE7C0208000F9E73B684B
:10BAE0009B00F3D4C0208000F3E7C046FFFFBFFFF8
:10BAF000FFFF9FFFFFFF03E00000FC1FFFFFFFF0C1
:10BB0000F8B5CE46474680B5070089461400531E57
:10BB10009A419046002A01D100BEFEE7FFF74EFE93
:10BB2000050026000836B30707D04823E25C00234F
:10BB3000032191425B41DBB298464346002B01D181
:10BB400000BEFEE728680003000FFFF78FFB01002F
:10BB50004823E0543A683733134099453BD83B6853
:10BB60009B003ED42B6823609B0221D56B686360E9
:10BB700003239843002300281ED18B4229D21A00A8
:10BB80000832A41803201A004240D2B20832AA1880
:10BB9000127822700133DBB201349942F3D10020D4
:10BBA00002E07B6BC02080000CBC90469946F8BD3B
:10BBB0006B689B0C6360DBE79A08920017000837FC
:10BBC000EF193F683FBAB7500433DBB28342F3D377
:10BBD000D3E70020E8E73B689B00E2D4C020800068
:10BBE000E2E77B6B1B011B0F5B0007339945B9D85C
:10BBF000C0208000D8E770B505000C00FFF7DEFD1F
:10BC00002A687F2313409C4202D9C020800070BD67
:10BC100003680020FBE7F8B5CE46474680B5040030
:10BC20000E1E01D100BEFEE7FFF7BAFD0500771E2C
:10BC300039002000FFF7C2FDA84643190833A022AF
:10BC40009200A21893422ED823687F229343174074
:10BC50003B432360216880239B05194001D00020CD
:10BC60001DE0002E22D000250027082343449946DA
:10BC700004E00135EDB22900AE420FD92000FFF7F4
:10BC80009DFD076047604346002BF2D00300083358
:10BC900048441F7001338342FBD1EAE700200CBC0B
:10BCA00090469946F8BDC0208000F8E70020F6E7EE
:10BCB00010B5002901D100BEFEE743680F4A1340CA
:10BCC0004360446807230A681340CA681206134396
:10BCD00023438A681204E024E402224013434A68A2
:10BCE000D204E024A403224013430A699205C02130
:10BCF00009040A401343436010BDC046F8FF00002A
:10BD000030B5002901D100BEFEE7036DDB0FDB0774
:10BD10000365046D0B689B061B0C1F228D682A406F
:10BD2000224313434A685201F824A40022401343DB
:10BD3000CA685205054C224013430A691204F821CF
:10BD400049030A401343036530BDC0460000E07F4D
:10BD500070B5002901D100BEFEE7114C0359114A0C
:10BD60001340035105590B689B02F822D20113407E
:10BD700007228E6832402A4313434A685201FF2546
:10BD80002A401343CA681205074D2A4013430A6923
:10BD90001204E021C9020A401343035170BDC0469A
:10BDA000040C0000188308C00000F03FF0B587B015
:10BDB0000CAC40CC2778002801D000BEFEE7002A5A
:10BDC00001D100BEFEE78000CD00144C0459641977
:10BDD00065790220002D1CD16071A771D07AE071C5
:10BDE00002A85568049515780571157A0573557A7A
:10BDF0004573957A8573D27A002A0CD01C22029260
:10BE0000009602AA0648FFF7F7FC002801D000239D
:10BE1000637107B0F0BD0C220292F1E78832002076
:10BE20000040024070B51600002801D000BEFEE7B9
:10BE30008000CD00094A8458641962790220002AE2
:10BE40000AD1013262712660A3710548FFF7D2FB67
:10BE5000002801D00023637170BDC04688320020E5
:10BE60000040024030B583B0002801D000BEFEE79C
:10BE70008300294C1C5965790223002D19D1274BC9
:10BE80001D680123AD0014D56371A27121601223D6
:10BE9000FF33E35C012B2CD11033FF33E35C020052
:10BEA0001F49180000F012FD002805D0002363711F
:10BEB0000133180003B030BD88235B00E05C013B18
:10BEC000FF3B0193022100912368164A00F056FDC2
:10BED000002803D0002363710133EAE788235B0065
:10BEE000E05C00F03BFE002803D0002363710133C7
:10BEF000DFE70A4C012205212000FFF77BFB01222E
:10BF000006212000FFF776FB012207212000FFF722
:10BF100071FB0023CDE7C04688320020004002407C
:10BF2000B1BF00008040024070B5002801D000BEC3
:10BF3000FEE780001C4BC5581223FF33EB5C002B3F
:10BF400017D11A4C002205212000FFF753FB0022D5
:10BF500006212000FFF74EFB002207212000FFF7FB
:10BF600049FB00232B60AB79002B19D100236B71A7
:10BF700070BD2C6888235B00E85C00F011FE23682C
:10BF80009A0202D46268920C62601B031B0F482263
:10BF9000A354A3681BBAA360E3681BBAE360E0E79D
:10BFA000281DFEF775FCE1E78832002000400240C2
:10BFB00010B5C0B2FFF7B8FF10BD000070B50C009F
:10BFC000002801D000BEFEE78000094BC5580022C2
:10BFD0000848FFF70FFBE4002E19B379002B03D0BC
:10BFE000201D2818FEF754FC0023737170BDC04655
:10BFF000883200200040024010B50C00002801D01B
:10C0000000BEFEE70A48FFF725FB002C08D1084ACE
:10C01000136808490B4013600548FFF709FB10BD82
:10C02000034A116880235B020B431360F4E7C046A8
:10C0300000400240FFFFFEFFF8B50E0014001D0097
:10C04000002801D000BEFEE7154F3800FFF702FBC5
:10C050003A687F2313409C4205D93800FFF7E8FA7D
:10C06000C0208000F8BD002E0ED1AD040D4B1D4048
:10C0700088239B009C466444A400094BE550084873
:10C08000FFF7D6FA0020EDE7012EF8D1ED00ED081C
:10C0900088239B009C466444A400014BE550EEE7D6
:10C0A000004002400000FC1FF0B5CE46474680B578
:10C0B00087B080460F001400002801D000BEFEE7C4
:10C0C000002901D100BEFEE7734D2800FFF7C2FA38
:10C0D0002800FFF703F96A68637A5B03802189010E
:10C0E0000B406E490A4013436B602800FFF7DCF8F1
:10C0F0002800FFF7AFFA2800FFF7FEF82B68684A20
:10C100001340227A002A00D0BCE0634A1360126D0B
:10C1100000231343604A13651268237A1205D20F75
:10C120000120934200D0A6E05B4A526B5D490A4071
:10C13000591E8B411B031343574A5363A379022BA8
:10C1400007D011001368584A1A4080239B021343FA
:10C150000B606379002B06D021794F48FFF708F96F
:10C16000002800D087E03423E35C012B0CD14A4B3C
:10C170001B6801209B007ED547490B684B4A1A403B
:10C1800080231B0213430B60A179434D2800FFF766
:10C19000B9FAE1792800FFF7E9FA21682800FFF7EA
:10C1A0003AFD002867D12B681B054BD501AD230054
:10C1B0000C332A0043CB43C203CB03C229003648C9
:10C1C000FFF79EFD230020332A0043CB43C203CB5D
:10C1D00003C229003048FFF7BBFD2F48FFF728FABC
:10C1E0000A20FEF7EFFF0A20FEF7ECFF0A20FEF719
:10C1F000E9FF0B20FEF7E6FF0B20FEF7E3FF3B1DF8
:10C2000099461E00002500213000FEF757FB00284C
:10C2100024D10022B270331F1A60EB00FB185A7150
:10C2200001350836202DEED13423E25C1223FF3392
:10C23000FA54DC3BE25CDB33FA5443469A001C4B75
:10C24000D75018E001A923000C330A0061CB61C26A
:10C2500021CB21C21048FFF72BFDBEE7002D0FD0E8
:10C2600000244846FEF738FB013408239C46E1448D
:10C27000AC42F6D1012007B00CBC90469946F0BD07
:10C280000120F8E7802212011343034A1360126D64
:10C2900080231B063DE7C04600400240FFDFFFFF52
:10C2A000FFF7FFFFFFEFFFFFFFFFFDFFFF7FFFFF38
:10C2B0008832002010B586B0002801D000BEFEE70D
:10C2C000002A01D100BEFEE702A854680494147845
:10C2D0000471D27A002A09D01C2202920022009214
:10C2E00002AA0448FFF788FA06B010BD082202929D
:10C2F000F4E7C0460040024010B582B00C000028B0
:10C3000001D000BEFEE7002A01D100BEFEE70021F9
:10C310000191049900912100FFF748FD002804D104
:10C32000012221000248FFF765F902B010BDC046A6
:10C330000040024030B585B00C001D00002801D03F
:10C3400000BEFEE7002A01D100BEFEE7536802935B
:10C35000137869460B71137A6A460B730F230093A7
:10C360002B0021000C48FFF75DFB002811D10023B2
:10C3700000932B006A4621000748FFF753FB002873
:10C3800007D1042300932B006A4621000248FFF7DF
:10C3900049FB05B030BDC0460040024070B50D00FD
:10C3A0001600002801D000BEFEE7064C2000FFF773
:10C3B00051F9320029002000FFF70EF82000FFF7A6
:10C3C00037F970BD0040024010B5002801D000BE12
:10C3D000FEE70023FFF726FD10BD10B5002801D0B1
:10C3E00000BEFEE70022FFF73DFD10BD10B500289E
:10C3F00001D000BEFEE78300064A9A5884235B0002
:10C40000D358002B01D0082198470348FFF748F97B
:10C4100010BDC046883200200040024070B5051EA5
:10C4200001D000BEFEE783001A4A9C5880235B00BF
:10C43000E358002B0DD0184B1B685B0409D5174B34
:10C44000154AD3589B0305D4144B134AD358DB0326
:10C4500010D470BD1100114A885880239B020343F9
:10C460008B5080235B00E658230000220521280022
:10C47000B047E9E71100094A885880235B0203436B
:10C480008B5080235B00E658230000220621280001
:10C49000B047DEE78832002000400240080B000071
:10C4A000F0B595B0051E01D000BEFEE773498A6A5B
:10C4B0000B6B1A40012313400024012000221F2689
:10C4C00002E0212C00D1C2E018420BD1013413004C
:10C4D0001F2CF6D88F6A0B6B3B4037002740FB4080
:10C4E0000340EEE7002B00D1B3E0AB00644A9E5856
:10C4F000624B1B68802292051340052C47D1002B0C
:10C5000000D176E07379012B12D15C4F316838008D
:10C51000FFF7CEF82800FFF707FD20233B63E03349
:10C52000F758002F04D03300002201212800B8471B
:10C53000E700F7197B79022B27D121002800FFF7AC
:10C540003DFDFB79002B46D04C4F21003800FFF712
:10C5500052FB01AA21003800FFF7D2FABB68019B09
:10C560001B011B0F042B06D11F222240033B9340CB
:10C570001F2C00D83B6380235B00F758002F04D0AA
:10C580003300220004212800B84715B0F0BD062C66
:10C590000FD1002B2DD04022384B1A6380235B0033
:10C5A000F758002FC4D03300002202212800B847DA
:10C5B000BEE7072C1DD1002B1BD080222F4B1A6306
:10C5C00080235B00F758002FB2D0330000220321F4
:10C5D0002800B847ACE71F222240012393401F2CBC
:10C5E000C9D8264A1363C6E7AB00254A9E58234B99
:10C5F0001B68E700F7197B79012B99D121001F48AF
:10C60000FFF7F9FA002800D092E73A6821001B48AA
:10C61000FFF776FA002800D08AE7184B9B682100C4
:10C620002800FFF7CBFC1F222240012393401F2C40
:10C6300001D8124A136380235B00F758002F00D102
:10C6400076E73300220000212800B84770E7002B6E
:10C65000CAD10A490B4BCA58CB581B0C520C134376
:10C66000DB0702D52800FFF7D9FE044BDB69002B5E
:10C6700000D18AE72800FFF7B9FE86E700400240B4
:10C6800088320020080B0000002801D000BEFEE721
:10C690008000044BC358802040001950822149007B
:10C6A0005A5070478832002010B5002000F02AF957
:10C6B00010BD10B5012000F025F910BD10B5022005
:10C6C00000F020F910BD10B5032000F01BF910BDDB
:10C6D00070B5002000F086FAC56A0024012604E047
:10C6E0006D080134E4B2042C05D02E42F8D02000AD
:10C6F00000F01CF9F4E770BD002A01D18176704783
:10C70000C176FCE749014018104BC21800231360A2
:10C710008022520183500E4A83520E4A83520E4A9F
:10C72000821813600D4A821813600D4A8218138014
:10C730000C4A821813800C4A821813600B4A821824
:10C7400013800B4A94466044038070470810000031
:10C7500004100000061000000C1000001010000073
:10C760001410000016100000181000001C1000002B
:10C770001E100000F0B5150005AA127806AC267848
:10C78000002403278F426441E4B2002C01D100BE93
:10C79000FEE7DC00FF231C40F83B33402343ED025F
:10C7A0002B431202E024E400224013439BB2803169
:10C7B00049014118CB80F0BD10B5030000240320CF
:10C7C00088426441E4B2002C01D100BEFEE7186843
:10C7D000000614D548011818134CA446604400689C
:10C7E000002813DB480118186044006840000DD48D
:10C7F0009200920849015B1863441A6010BD490118
:10C800005B1809498C4663441A60F7E749015B18D5
:10C8100005498C4663441968890A89029205920D7C
:10C820000A431A60EAE7C0460810000010B500236A
:10C8300003248C425B41DBB2002B01D100BEFEE73A
:10C840004B01C318164CA44663441B881BB2002B33
:10C8500013DB49014118124BCC18208853045B0CA0
:10C86000C20BD2031A4322800E4A944661440A88BE
:10C87000D20BD20313430B8010BD4B01C318181900
:10C880000188D205D20D490A4902114301800549A8
:10C890008C4663441988490A49020A431A80EBE727
:10C8A0001E1000001610000003231840023B002B4E
:10C8B00001D100BEFEE7044A1077002B01D100BE73
:10C8C000FEE7014BD87770470080004010B5002389
:10C8D000032484425B41DBB2002B01D100BEFEE7A2
:10C8E0008000074B1B681B181868002801D100BE88
:10C8F000FEE7186841601B689A60002010BDC046C2
:10C900008C32002010B5084B1B688200D458FFF70A
:10C91000CBFF002C06D06368002B03D0217BC9B26B
:10C92000A068984710BDC0468C32002070B5060044
:10C9300003250540002229000E48FFF7DDFE0E4BBF
:10C940001B68B200D458002C0DD03000FFF7ACFFAC
:10C95000084B9D77012323736368002B03D0217B51
:10C96000C9B2A0689847034A136820218B4313601B
:10C9700070BDC046008000408C320020F0B5DE461D
:10C9800057464E464546E0B585B0884693460393E4
:10C990000EAB1B7899460023032282425B41DBB237
:10C9A000002B01D100BEFEE7664B1B68002B01D1B6
:10C9B00000BEFEE78200D3585A1E9341002B01D1DE
:10C9C00000BEFEE74A46022A00D90023002B01D10F
:10C9D00000BEFEE70324044001254B469D40FF2195
:10C9E00029400F98FDF724FE0B005A1E93419BB27D
:10C9F0009A46002900D09DE021005348FFF782FEAF
:10CA00000126002E01D100BEFEE762014F4B9C467D
:10CA1000624413889B049B0C802109020B43138002
:10CA2000002E01D100BEFEE76701474B9C466744DC
:10CA300080235B015A46FA50002E01D100BEFEE76A
:10CA40006301434A94466344039A1A604B46019338
:10CA500000930023002221003B48FFF78BFE434652
:10CA6000012B27D0002B12D0022B36D0032B46D01F
:10CA7000354D0F9A21002800FFF79EFE012221006C
:10CA80002800FFF7D3FE002E4BD100BEFEE7002E9C
:10CA900001D100BEFEE700222E4BFA526DB2002EED
:10CAA00001D100BEFEE7ADB263012B4A9446634458
:10CAB0001D80DDE76DB2002E01D100BEFEE7ADB2F4
:10CAC000244BFD52002E01D100BEFEE76301224A35
:10CAD0009446634400221A80CAE76DB2002E01D149
:10CAE00000BEFEE7ADB21B4BFD52002E01D100BED1
:10CAF000FEE76301184A944663441D80B8E7002EA0
:10CB000001D100BEFEE70022124BFA52002E01D1E5
:10CB100000BEFEE76301104A9446634400221A8077
:10CB2000A6E76401094B9C46644423880222934390
:10CB300013432380504605B03CBC90469946A2461C
:10CB4000AB46F0BD8C320020008000401C900040BD
:10CB500010900040041000001490004010B5002315
:10CB6000032282425B41DBB2002B01D100BEFEE713
:10CB7000094B1B68002B01D100BEFEE78200D35891
:10CB8000002B01D100BEFEE7032101400122034832
:10CB9000FFF7B2FD002010BD8C3200200080004065
:10CBA00010B50023032282425B41DBB2002B01D18E
:10CBB00000BEFEE7094B1B68002B01D100BEFEE75B
:10CBC0008200D358002B01D100BEFEE703210140B3
:10CBD00000220348FFF790FD002010BD8C3200209A
:10CBE00000800040002801D000BEFEE700487047EA
:10CBF0000080004010B5002801D100BEFEE7002AE9
:10CC000001D100BEFEE7044C20602171A2602373B5
:10CC10006373002010BDC04690320020F0B5C646B8
:10CC200000B582B006000F003B4B1B79984201D340
:10CC300000BEFEE701AD28706970FEF705FB364BBC
:10CC40001C7B5C730123AB70002C4FD00024324D51
:10CC500005E00134E4B2304B1B7BA34246D9A3006C
:10CC6000AA689B58002BF4D01A79022AF1D099684F
:10CC70001B6801A898470028EBD0274B5C73002F56
:10CC8000E7D10425FF35002201AB9A70A400224EA3
:10CC900027E00134E4B2204B1B7BA34213D9A3004D
:10CCA000B2689B58002BF4D01A79012AF1D0996808
:10CCB0001B6801A898470028EBD0174B5C73002F26
:10CCC000E7D182256D00FEF7B1FA280002B004BC5E
:10CCD0009046F0BD99681B6801A89847043C231D45
:10CCE000F1D0B3681B59002BF4D1F7E70A4B9846F3
:10CCF000B30042461268985800F0E4FB051E434614
:10CD00005E71C0D1022201AB9A70034B1B7B002BDA
:10CD1000D9D00024004EC2E790320020084B5A6957
:10CD2000FF231340042B06D0802B06D00120012BBB
:10CD300002D0042000E0022070470320FCE7C04638
:10CD400000E0074080235B00034AD3580020DB014A
:10CD500001D5024B18687047004006404833002058
:10CD600030B585B000293BD080235B003E4AD358C4
:10CD70009B0174D480235B00D4583C4D2C40D4508C
:10CD80008024E404D4500022394B1A60002800D1DA
:10CD900068E04B7A1B02E022D2001340087A072297
:10CDA00002401343304C82225200A350CA79120130
:10CDB000302313408879C000082202401343487989
:10CDC000800004220240134384225200A3500B79B6
:10CDD000012B27D0002B10D0022B2ED000BEFEE757
:10CDE00000236A4613711373012269460A724A725C
:10CDF0004B718B710233CB71B6E70B7B5A1E93419B
:10CE0000DB0501221343FF32174883500A68184B91
:10CE10001A60184CFFF796FF00281BD1002C17D082
:10CE2000013CF7E70B7B5A1E9341DB05124A134383
:10CE3000802252000C488350E8E70B7B5A1E934136
:10CE4000DB050E4A13438022520007488350DDE77A
:10CE5000033005E00020002C02D1033000E0022066
:10CE600005B030BD0020FBE700400640FFFF7FFF1C
:10CE70004833002088E73000010001000100030072
:10CE800080239B00064AD3580020DB0105D582236E
:10CE90009B00D358DB0701D5024870470020FCE710
:10CEA0000040064000127A0030B583B000293BD024
:10CEB00080239B002B4AD258FF3BFF3B92014BD46F
:10CEC000284AFF33FF33D458274D2C40D450002438
:10CED000D450002843D08B781B02E022D2001340AC
:10CEE00048780722024013431E4A812080001350D5
:10CEF00008780123034082208000135048798A7902
:10CF000009790323002900D1023B0100481E814119
:10CF100089000B43511E8A41D2051343802292009F
:10CF200010498B5064240BE000226B461A710123D8
:10CF300069464B718A714B708B700B70B8E7013C7E
:10CF4000FFF79EFF002803D1002CF8D1032303E054
:10CF50000023002C00D10333180003B030BD0023A0
:10CF6000FAE7C04600400640FFFF7FFFC0239B005A
:10CF7000054AD358DB0104D5C2239B00D35803488C
:10CF800070470020FCE7C04600400640006CDC0211
:10CF900030B583B0002935D0C0239B00274AD25832
:10CFA0000223920140D4254AC0239B00D458244D2B
:10CFB0002C40D4508024E404D45000283CD08B78FA
:10CFC0001B02E022D200134048780722024013439C
:10CFD0001A4AC12080001350087803230340C2205E
:10CFE000800013508B7949790122002900D1083241
:10CFF000591E8B41DB051343C02292000F498B5011
:10D0000014240AE001236A465371002269468A719A
:10D010004B708B700A70BFE7013CFFF7A7FF002839
:10D0200005D1002CF8D10323180003B030BD002334
:10D03000002CF9D10333F7E70023F5E70040064061
:10D04000FFFF7FFFF0B5C64600B580460C008F7825
:10D050004E780D78002801D100BEFEE7CB78022B78
:10D0600013D0032B14D00020012B01D1FFF76AFE4F
:10D07000013701367E4301357D4302094346012BCA
:10D0800009D0022B3ED000BEFEE7FFF7F9FEEFE726
:10D09000FFF76CFFECE7E1780C234B4336481B5855
:10D0A0001B095F430120BA4229D80B304843324B59
:10D0B0001B185B681B095E430120B2421FD80B306E
:10D0C00048432D4B1B189B681B095D430120AA4256
:10D0D00015D8A3781B04F022120313400A06F0218E
:10D0E00009050A40134322780F210A40134362784E
:10D0F0001201F0310A401343204A5361002004BC5E
:10D100009046F0BDE178022901D000BEFEE70C2375
:10D110004B431B481B581B095F430120BA42EED802
:10D120000B304843164B1B185B681B095E430120FC
:10D13000B242E4D80B304843114B1B189B681B09C3
:10D140005D430120AA42DAD8A3781B04F02212031F
:10D1500013400906F022120511400B4322780F21DB
:10D160000A40134362781201F0310A401343034A24
:10D1700093610020C3E7C0467CDF0000004006400A
:10D18000D0DF000070B5041E01D100BEFEE7C378F9
:10D19000FF2B01D100BEFEE7FFF7C0FD042801D13F
:10D1A00000BEFEE72100FFF74DFF00280CD1E57817
:10D1B0000A22084C0F21013A23691B0E0B409D42A5
:10D1C00003D0002AF7D1032070BD002AFCD1032030
:10D1D000FAE7C0460040064010B5040000230222D2
:10D1E00082425B41DBB2002B01D100BEFEE7194B4E
:10D1F0001B691B011B0F022B16D0032B17D000201D
:10D20000012B0ED0134B19690903090F0131FDF7EA
:10D2100089F9012C0ED0002C02D0022C12D0002053
:10D2200010BDFFF78FFDEDE7FFF72AFEEAE7FFF7F6
:10D230009DFEE7E7074B19690906090F0131FDF764
:10D2400071F9EDE7034B1B690F2119400131FDF71F
:10D2500069F9E5E70040064010B50D4B1B6A1B015C
:10D260001B0F012B0BD0002B05D0022B0AD0032B58
:10D270000BD0002002E00220FFF7AEFF10BDFFF749
:10D2800061FDFBE7FFF7FCFDF8E7FFF76FFEF5E751
:10D290000040064010B5002903D001292BD000BE64
:10D2A000FEE7052805D006281CD0042810D000BEB3
:10D2B000FEE7FFF75BFEC1239B00204AD2580723FD
:10D2C0001340002B02D0013BD8400300180010BDD2
:10D2D000FFF7D6FD81239B00184AD258FE3BFF3B47
:10D2E0001340EEE7FFF72EFD82235B00134AD2586E
:10D2F000FD3B1340E5E7052805D0062815D0042896
:10D300000AD000BEFEE7FFF731FEC1239B000B4AA7
:10D31000D3585B055B0FD4E7FFF7B2FD81239B0079
:10D32000064AD3585B055B0FCBE7FFF70BFD822363
:10D330005B00024AD3585B055B0FC2E70040064022
:10D3400010B5114B1B699B069B0F012B0CD0002BBA
:10D3500005D0022B10D0032B11D0002003E00021B8
:10D360000620FFF797FF10BD074B1B6902201840EE
:10D37000F9D0FA20C001F6E7044B1868F3E7002162
:10D380000520FFF787FFEEE7008004404C330020C4
:10D3900070B54000164BC35A9B00164A944663442E
:10D3A0001C68E406E40F1D680F2215400020A5420A
:10D3B00015D318684000C00F11D01B685B015B0FCC
:10D3C000022B0DD0032B0FD00020012B02D1062001
:10D3D000FFF760FF691CFDF7A5F80134604370BDDD
:10D3E0000420FFF757FFF5E70520FFF753FFF1E7AC
:10D3F000F0DE000000500640114B1B691B079B0F1D
:10D40000012B07D0002B17D0022B05D0032B0BD0FC
:10D4100000BEFEE700207047094B1B690220184040
:10D42000F9D0FA20C001F6E7054B1B69022018402D
:10D43000F1D0FA20C001EEE7FA204002EBE7C04647
:10D440000080044010B51D4B5B6800201B0534D5DF
:10D450001A4B5B681B061B0F0E2B03D89B00184A48
:10D46000D3589F46002021E0FFF7F6FE1EE0012181
:10D470000620FFF70FFF19E001210420FFF70AFF44
:10D4800014E001210520FFF705FF0FE00020FFF762
:10D49000A3FE0BE00120FFF79FFE07E0FFF7ACFFC4
:10D4A00004E0FFF74DFF01E0FA204002034B59680A
:10D4B0004905490F0131FDF735F810BD00800440E2
:10D4C00040DE0000F0B5DE4657464E464546E0B524
:10D4D000A1B00400FFF722FC012801D000BEFEE746
:10D4E000002C04D0261E00D0B5E000BEFEE702AB43
:10D4F0000122DA70002119715A7199711A705A70EB
:10D500009A709A731A735973D9711A725A723020B9
:10D510001A54D9625A77B9481861197519775A752A
:10D5200099750234DC751A765A7628201A54083810
:10D53000195407301954063819540C2501301D545C
:10D540000130195401301A5401301A5410301A5451
:10D550003238283558550F355A550A3D5855013D32
:10D560005955013D5A55013D5A5507355C553A34D8
:10D570001A55013C1955013C1855A1481867172048
:10D58000D8662D301A540130195401301954013025
:10D59000195401301A5404301A5401381A540138FD
:10D5A00019540138195417301A5401301A540130E3
:10D5B0001A5401301A5401301A5401301A540630EA
:10D5C0001A541B381A5459659965D96516301A547E
:10D5D00001301A54013019540130195401301954D2
:10D5E0000A301A5401301A54753299541E001C0026
:10D5F000844B1B691B011B0F032B17D0FFF7B6FCD5
:10D60000002806D100210130FFF7C2FC051E00D022
:10D610008EE001A80323C3700022827001324270A1
:10D620000370FFF7AFFD051E00D081E0E078310008
:10D63000FFF73AFC051E05D121001031607FFFF78E
:10D640008FFB0500FFF76AFB01280DD0022800D1EF
:10D6500076E000BEFEE7002CCAD123006C33002B1D
:10D6600000D082E000BEFEE726003636002D34D121
:10D67000F378032B67D1637F002B00D1AAE101A8C7
:10D680000123C3700022827043700370FFF77AFD9C
:10D690000500E378002B0CD001280AD101A8022351
:10D6A000C37000238370437001330370FFF76AFD7A
:10D6B0000500002D11D1E11DA07BFFF769FC051EBF
:10D6C0000BD101A8F378C370B3788370737843707B
:10D6D00033780370FFF756FD0500002D28D1302365
:10D6E000E35C002B02D0484BE26A1A603523E35C0E
:10D6F000002B0BD043490B6A444A1A403423E35CA5
:10D700001B06F0200005034013430B624323E35C38
:10D71000002BA2D0210036310120FFF793FC051E1B
:10D7200006D121003A310220FFF78CFC051E94D06F
:10D73000280021B03CBC90469946A246AB46F0BDBD
:10D7400026003A3692E701A8C370B37883707378E5
:10D75000437033780370FFF715FD051EBDD1E11D41
:10D76000A07BFFF715FC0500B7E7002B40D0236F27
:10D77000002B3DD0E36E002B3AD00022244B98467C
:10D78000244B9C46E027FF04102691008918236F44
:10D790005B5C5B0040461B5A9B001F4881464B4424
:10D7A0001868654628401860236F994649440B78ED
:10D7B00099468B781B063B409B46CB781B01334038
:10D7C0005846034308790F25284003434978481EEB
:10D7D000814189070B43494649000D48095A890090
:10D7E00089460D49484643500132E36E9A42CCD3F4
:10D7F0002300443312D100BEFEE7C04600127A0077
:10D80000C0000020004006404C330020FFFFFFF026
:10D81000F0DE0000FFFFFFBF005006404423E35C42
:10D82000002B17D0220044329578D1786C4B586881
:10D830006C4B18405278531E9A41D2022D01FF239F
:10D840002B400902E025ED0029400B43034313431D
:10D85000634A5360230044331B79002B19D0220004
:10D860004432957950795E4B19693F2399430B00F7
:10D87000117A1943D279531E9A415200AD000C23FC
:10D880002B400B430001302101400B431343544A0A
:10D890001361230044331B7F002B35D0504B1A6C8F
:10D8A00001218A43110020004430427F0A431A6458
:10D8B0001B6C02229343827F511E8A415200134304
:10D8C000474A1364136C04229343C27F511E8A415A
:10D8D00092001343424A1364136C082293432200BC
:10D8E00064321278511E8A41D20013433C4A1364B9
:10D8F000136C10229343220065321278511E8A4124
:10D9000012011343364A1364230044331B7B002B5C
:10D9100006D0354B626D1A60A26D5A60E26D9A6056
:10D92000230066331B78002B24D02D4A936E0020F1
:10D93000906653682D491940230068331B781B03F8
:10D9400080256D012B400B435360906623006733A5
:10D950001B78002B0ED0230069331A7852000E2357
:10D96000134022006A321178802252050A43134381
:10D970001B4A93662300743301D100BEFEE7742373
:10D98000E35C002B24D01A498B787F221340743437
:10D99000627801204240D2011343DBB28B70022334
:10D9A000E356002B01DA20335BB2D9B200222020EB
:10D9B00088425241D2B2002A01D100BEFEE70C4893
:10D9C00001791F22134091430B4303710025AFE6F9
:10D9D0000025ADE6E3780125002B00D17DE65DE66C
:10D9E000008004400FF0FFFF50330020FFEFFFFFE7
:10D9F00000D0074070B504000D00112806D9212879
:10DA000069D90420442C00D80EE170BD0F285FD8DE
:10DA10008400B44B1B599F460020FFF7DDFB030039
:10DA20000020002DF1D02B60EFE70120FFF7D4FBA1
:10DA300003000020F5E70220FFF7CEFB03000020E3
:10DA4000EFE7FFF7FFFC03000020EAE7FFF718FA13
:10DA500003000020E5E7FFF789FA03000020E0E774
:10DA6000FFF770F903000020DBE79F4B1B680020E5
:10DA7000D7E7FFF7F1FB03000020D2E700210420E5
:10DA8000FFF708FC03000020CBE701210420FFF78B
:10DA900001FC03000020C4E700210520FFF7FAFB8A
:10DAA00003000020BDE701210520FFF7F3FB030081
:10DAB0000020B6E700210620FFF7ECFB0300002062
:10DAC000AFE701210620FFF7E5FB03000020A8E7F0
:10DAD00000230420A5E7153CE3B20C2B00D982E01B
:10DAE0009C00824B1B599F46814BDB689B019B0F1F
:10DAF000022B00D97AE09B007E4A9B5800200EE062
:10DB00007B4BDB681B019B0F022B72D89B00794A71
:10DB10009B58002003E0FFF795FC03000020002D38
:10DB200000D172E72B6070E7FFF70AFC03000020CA
:10DB3000F5E7714B9B78DB0902D000230020EEE76C
:10DB4000FFF75AFC03000020E9E76B4B9B78DB09E9
:10DB500052D1674B1869012303400020002BDED00F
:10DB6000FA239B000020DAE7634B9B78DB0946D160
:10DB70005F4B1869022303400020002BCFD0FA230B
:10DB8000DB010020CBE75C4B9B78DB093AD1FA2321
:10DB90005B020020C3E7564B1B6CDB06DB0F34D166
:10DBA00080204000BBE7524B1B6C1B07DB0F2FD1C3
:10DBB00080204000B3E74E4B1B6C5B07DB0F2AD184
:10DBC00080204000ABE74A4B1B6C9B07DB0F25D145
:10DBD00080204000A3E7464B186C0123034020D16E
:10DBE000802040009BE70023042098E700230020CA
:10DBF00095E70023002092E7002300208FE7002311
:10DC000000208CE70023002089E70023002086E71E
:10DC10000023002083E70023002080E7002300206A
:10DC20007DE7002300207AE7222C06D8002204207A
:10DC3000002D00D1E9E62A60E7E62300323BDBB2A3
:10DC4000122B05D82D4ADA4013000022DB07EFD44F
:10DC500063002B4A9B5A9B002A4A9A585200D20FC3
:10DC600002D180204000E3E7274B1E5DB30606D4B7
:10DC700073060FD473B2002B15DB00BEFEE7012044
:10DC8000FFF7AAFA00280AD018231E4211D1002259
:10DC90001000CDE70020FFF79FFA0028F4D1002202
:10DCA00080204000C4E70220FFF796FA0028F6D053
:10DCB000EAE7330705D4F3060AD4002280204000A7
:10DCC000B6E700212000FFF763FB0200F30604D54E
:10DCD00001212000FFF75CFB02005042504100028E
:10DCE000A6E7C0467CDE00004C330020BCDE00000E
:10DCF000008004405033002000D007402901040078
:10DD0000F0DE00000050064024E0000030B5204A5C
:10DD1000204B9A4209D01F49891A00231E4C10003B
:10DD2000C25CE25401338B42FAD11C4A1C4B9A422A
:10DD300009D01B49891A00231A4C1000C25CE25416
:10DD400001339942FAD1184A184B9A4206D013006F
:10DD50000021164A197001339342FBD1144A154B26
:10DD60009A4210D01449890809D000230022104C8F
:10DD70001048C558E550013204338A42F9D10F4B9F
:10DD80000B4A1A6030BD0D4B0A4A1A60FAE7C046CA
:10DD9000D8E0000070E70000C000002070E700003D
:10DDA00070E7000058070020C030002060330020DA
:10DDB0000000002000A00000C000000008ED00E00E
:10DDC000044B054A5A605A68044A1A60044A9A6029
:10DDD0007047C0460020054020C528D920210000FA
:10DDE000FFFF00000448054943581B041B0C044A6C
:10DDF000134343507047C04600E000E00C0D0000A4
:10DE00000400FA0503008218934200D1704719708C
:10DE10000133F9E7010000000000000000000000ED
:10DE2000000000009EB2000086B200008AB200002E
:10DE30008EB2000092B2000096B200009AB20000CA
:10DE400068D4000064D400006ED4000064D40000E4
:10DE500078D4000064D4000082D400008CD4000088
:10DE600064D4000094D40000A8D4000064D400005E
:10DE70009CD4000064D40000A2D4000018DA000092
:10DE80002ADA000036DA000042DA00004CDA00003C
:10DE900056DA000060DA0000D0DA00006ADA00002A
:10DEA00072DA00007CDA00008ADA000098DA0000FA
:10DEB000A6DA0000B4DA0000C2DA0000E8DA0000F6
:10DEC00000DB000016DB000028DB000032DB000076
:10DED0004ADB000068DB000086DB000096DB000008
:10DEE000A6DB0000B6DB0000C6DB0000D6DB0000CE
:10DEF0000000000000000000000000000000000022
:10DF00000000000000000000000000000000000011
:10DF10000000000000000000000000000000000001
:10DF200000000000000000000000000000000000F1
:10DF300000000000000000000000000000000000E1
:10DF4000000073003200210049004A004B004C00E1
:10DF50004D003D00000024003600000020000000BD
:10DF60003800390000003B005A00660037002C00E2
:10DF70002D0040006A006B0000000000000000005F
:10DF8000000000000000000000B4C404006CDC02CB
:10DF9000B0F3960100B4C404006CDC02B0F3960147
:10DFA00000B4C404006CDC02B0F396010000000071
:10DFB0000000000000000000000000000000000061
:10DFC0000000000000B4C404005A6202B0F39601DD
:10DFD00000000000000000000000000000093D00FB
:10DFE00000093D0040420F0000093D0000093D00CE
:10DFF00040420F0000093D0000093D0040420F0073
:10E000000000000000000000000000000000000010
:10E01000000000000000000000093D0000093D0074
:10E0200040420F000000000000000000000000005F
:10E0300000000000000000000000000000000000E0
:10E04000004141414141000000000000002020202B
:10E050002020202020200040400080004848003040
:10E060003030303030363030000000000000070122
:10E070000F01000110000000000100000700000077
:10E080000400000001000000050000000100000085
:10E09000070000000400000001000000050000006F
:10E0A000010000000000000000000000000000006F
:10E0B000F8B5C046F8BC08BC9E467047F8B5C046E7
:08E0C000F8BC08BC9E46704745
:08E0C80089A400000000000023
:08E0D0005DA400000000000047
:10E0D8003B0102000029010000002A010000002B7A
:10E0E8000100000033010000003C0102000036017D
:10E0F800000000380102000039010200003D010261
:10E1080000003E010200003F010200004001020041
:10E118000041010200004201020000430102000028
:10E1280034010000002C010000002D010000002E29
:10E13800010000002F010000003001000000310143
:10E148000000000000C004400100000000000000C2
:10E1580000000000000000000000000000C00440B3
:10E1680000000000000000000000000000000000A7
:10E178000000000000D004400B0000000000000078
:10E1880000000000000000000000000000D0044073
:10E198000A0000000000000000000000000000006D
:10E1A8000000000000D00440050000000000000549
:10E1B80000000000000000000000000000D0044043
:10E1C800040000000000000500000000000000003E
:10E1D8000000000000A0044007000000000000004C
:10E1E80000000000000000000000000000A0044043
:10E1F8000600000000000000000000000000000011
:10E208000000000000D004400300000000000000EF
:10E2180000000000000000000000000000C00440F2
:10E22800100000000000000100000000C0F00F40D6
:10E238000100000000C004400F00000000000001C1
:10E2480000000000C0F00F400100000000D00440B2
:10E2580009000000000000000000000000000000AD
:10E268000000000000D00440080000000000000189
:10E278000000000000F10F400100000000A0044071
:10E288000500000000000000000000000000000081
:10E298000000000000A0044004000000000000008E
:10E2A80000000000000000000000000000B0044072
:10E2B8000300000000000000000000000000000053
:10E2C8000000000000B00440020000000000000050
:10E2D80000000000000000000000000000C0044032
:10E2E800070000000000000000000000000000001F
:10E2F8000000000000C0044006000000000000000C
:10E3080000000000000000000000000000C0044001
:10E3180005000000000000000000000000000000F0
:10E328000000000000B004400100000000000001EF
:10E338000000000080F00F400100000000B0044021
:10E3480000000000000000000000000000000000C5
:10E358000000000000B004401100000000000000B0
:10E3680000000000000000000000000000B00440B1
:10E378001000000000000000000000000000000085
:10E388000000000000B004400F0000000000000082
:10E3980000000000000000000000000000B0044081
:10E3A8000E00000000000000000000000000000057
:10E3B8000000000000A0044003000000000000006E
:10E3C80000000000000000000000000000A0044061
:10E3D8000200000000000000000000000000000033
:10E3E8000000000000A00440010000000000000040
:10E3F80000000000000000000000000000A0044031
:10E408000000000000000000000000000000000004
:10E418000000000000B004400900000000000000F7
:10E4280000000000000000000000000000B00440F0
:10E4380008000000000000000000000000000000CC
:10E4480000000000009004400700000000000000E9
:10E4580000000000000000000000000000900440E0
:10E46800060000000000000000000000000000009E
:10E478000000000000D00440070000000000000079
:10E4880000000000000000000000000000A00440A0
:10E498000D00000000000000000000000000000067
:10E4A8000000000000A004400C0000000000000074
:10E4B80000000000000000000000000000C0044050
:10E4C8000400000000000000000000000000000040
:10E4D8000000000000C0044003000000000000002D
:10E4E80000000000000000000000000000C0044020
:10E4F8000200000000000000000000000000000012
:10E50800000000000090044003000000000000002C
:10E51800000000000000000000000000009004401F
:10E5280002000000000000000000000000000000E1
:10E5380000000000009004400100000000000000FE
:10E5480000000000000000000000000000900440EF
:10E5580000000000000000000000000000000000B3
:10E568000000000000B004400700000000000000A8
:10E5780000000000000000000000000000B004409F
:10E58800060000000000000000000000000000007D
:10E598000000000000D00440060000000000000059
:10E5A80000000000000000000000000000D004404F
:10E5B8000200000000000000000000000000000051
:10E5C80000000000009004400D0000000000000062
:10E5D800000000000000000000000000009004405F
:10E5E8000C00000000000000000000000000000017
:10E5F80000000000009004400B0000000000000034
:10E60800000000000000000000000000009004402E
:10E618000A000000000001070000000000000000E0
:10E628000000000000D004400100000000000000CD
:10E6380000000000000000000000000000D00440BE
:10E6480000000000000000000000000000000000C2
:10E658000000000000B004400500000002000007B0
:10E6680000000000000000000000000000B00440AE
:10E678000400000001000007000000000000000086
:10E68800000000000090044005000000020100079F
:10E69800000000000000000000000000009004409E
:10E6A8000400000002000007000000000000000055
:10E6B800000000000101010100010000010100004B
:10E6C800010001000024F400000100030101000022
:10E6D8000001000000000000000000000000000031
:10E6E8000000000001000000030101010003030015
:10E6F800010200000000000101000000010000010B
:10E7080001000000010000000000000000000000FF
:10E7180000000000010101010101010100000000E9
:10E72800090000002007002001010000A4060020C5
:10E738002B0100000033010000003E0102000034FC
:10E74800010000002C010000002D010000002E0136
:10E758000000002F01000000300100000000000050
:08E768000000000000000000A9
:040000030000A4C590
:00000001FF
